:100000000C945D000C9485000C9485000C94850084
:100010000C9485000C9485000C9485000C9485004C
:100020000C9485000C9485000C9485000C9485003C
:100030000C9485000C9485000C9485000C9485002C
:100040000C9407030C9485000C9477030C945103D3
:100050000C9485000C9485000C9485000C9485000C
:100060000C9485000C94850000000008000201003B
:100070000003040700000000000000000000000072
:10008000250028002B0000000000240027002A0083
:10009000040404040404040402020202020203032E
:1000A0000303030301020408102040800102040836
:1000B0001020010204081020A90311241FBECFEF55
:1000C000D8E0DEBFCDBF22E0A4EDB1E001C01D92BB
:1000D000A139B207E1F711E0A0E0B1E0E2ECF0E114
:1000E00002C005900D92A43DB107D9F710E0CDE50F
:1000F000D0E004C02197FE010E944C06CC35D10708
:10010000C9F70E94D6030C945F080C94000090E09D
:10011000FC01EC55FF4F249180579F4FFC018491C7
:10012000882399F090E0880F991FFC01EA57FF4F50
:10013000A591B491FC01E458FF4F859194918FB73C
:10014000F894EC91E22BEC938FBF089590E0FC01C2
:10015000E859FF4F2491FC01EC55FF4F3491FC010D
:10016000E057FF4FE491EE23C9F0222339F023300A
:1001700001F1A8F4213019F1223029F1F0E0EE0F5D
:10018000FF1FE458FF4FA591B4918FB7F894EC91FD
:10019000611126C030953E233C938FBF08952730D0
:1001A000A9F02830C9F0243049F7809180008F7D74
:1001B00003C0809180008F7780938000DFCF84B56B
:1001C0008F7784BDDBCF84B58F7DFBCF8091B0006E
:1001D0008F778093B000D2CF8091B0008F7DF9CF20
:1001E0003E2BDACF1F93CF93DF93182FEB010E94A2
:1001F0008700209739F460E0812FDF91CF911F9124
:100200000C94A600CF3FD10511F461E0F5CFE12FAA
:10021000F0E0E859FF4FE491E33031F140F4E13090
:10022000B1F0E230E1F0C038D1057CF7E4CFE7303F
:1002300029F1E83059F1E430B1F780918000806213
:1002400080938000D0938B00C0938A0004C084B553
:10025000806884BDC7BDDF91CF911F91089584B59B
:10026000806284BDC8BDF7CF809180008068809394
:100270008000D0938900C0938800EDCF8091B000BA
:1002800080688093B000C093B300E5CF8091B00048
:1002900080628093B000C093B400DDCF3FB7F89484
:1002A0008091DC019091DD01A091DE01B091DF0130
:1002B00026B5A89B05C02F3F19F00196A11DB11DC1
:1002C0003FBFBA2FA92F982F8827BC01CD01620FFD
:1002D000711D811D911D42E0660F771F881F991FB8
:1002E0004A95D1F70895AF92BF92CF92DF92EF92E5
:1002F000FF920F931F93CF93DF936C017B018B01D0
:10030000040F151FEB015E01AE18BF08C017D1071F
:1003100059F06991D601ED91FC910190F081E02DA9
:10032000C6010995892B79F7C501DF91CF911F91FE
:100330000F91FF90EF90DF90CF90BF90AF90089516
:10034000FC01538D448D252F30E0842F90E0821BDB
:10035000930B541710F0CF96089501970895FC0160
:10036000918D828D981761F0A28DAE0FBF2FB11DB8
:100370005D968C91928D9F5F9F73928F90E0089510
:100380008FEF9FEF08952FB7F8948091E00190913F
:10039000E101A091E201B091E3012FBF8093EC0154
:1003A0009093ED01A093EE01B093EF0184EE91E004
:1003B0000E94AF0197FF26C02FB7F8948091E0010B
:1003C0009091E101A091E201B091E3012FBF409132
:1003D000EC015091ED016091EE017091EF01841BF1
:1003E000950BA60BB70B4091E8015091E901609184
:1003F000EA017091EB0184179507A607B707B0F2E1
:100400008FEF9FEF0895FC01918D828D981731F049
:10041000828DE80FF11D858D90E008958FEF9FEF9D
:100420000895FC01918D228D892F90E0805C9F4F73
:10043000821B91098F739927089584EE91E00E94A1
:10044000110221E0892B09F420E0822F089580E039
:1004500090E0892B29F00E941D0281110C9400006C
:100460000895FC01A48DA80FB92FB11DA35ABF4F49
:100470002C91848D90E001968F739927848FA689A3
:10048000B7892C93A089B1898C91837080648C93F7
:10049000938D848D981306C00288F389E02D8081A6
:1004A0008F7D80830895EF92FF920F931F93CF93D8
:1004B000DF93EC0181E0888F9B8D8C8D98131AC09F
:1004C000E889F989808185FF15C09FB7F894EE8986
:1004D000FF896083E889F9898081837080648083E3
:1004E0009FBF81E090E0DF91CF911F910F91FF902E
:1004F000EF900895F62E0B8D10E00F5F1F4F0F73D6
:100500001127E02E8C8D8E110CC00FB607FCFACF90
:10051000E889F989808185FFF5CFCE010E943102FB
:10052000F1CFEB8DEC0FFD2FF11DE35AFF4FF08261
:100530009FB7F8940B8FEA89FB8980818062CFCFC7
:10054000CF93DF93EC01888D8823B9F0AA89BB890A
:10055000E889F9898C9185FD03C0808186FD0DC0F5
:100560000FB607FCF7CF8C9185FFF2CF808185FF16
:10057000EDCFCE010E943102E9CFDF91CF910895F6
:1005800042E050E06EE471E084EE91E00C9473017F
:10059000CF93DF93FC0101900020E9F73197AF0181
:1005A000481B590BBC0184EE91E00E947301EC01E1
:1005B0000E94C0028C0F9D1FDF91CF9108950F9371
:1005C0001F93CF93DF93EC0188819981009759F0B5
:1005D0002A813B812617370730F081E0DF91CF91E8
:1005E0001F910F9108958B016F5F7F4F0E947707D6
:1005F000009759F0998388831B830A832C813D815E
:10060000232B59F7FC011082E8CF80E0E7CF1F923F
:100610000F920FB60F9211242F933F938F939F93B6
:10062000AF93BF938091E0019091E101A091E2012D
:10063000B091E3013091DB0123E0230F2D3758F512
:100640000196A11DB11D2093DB018093E0019093E1
:10065000E101A093E201B093E3018091DC0190916C
:10066000DD01A091DE01B091DF010196A11DB11D58
:100670008093DC019093DD01A093DE01B093DF0154
:10068000BF91AF919F918F913F912F910F900FBE8E
:100690000F901F90189526E8230F0296A11DB11DFB
:1006A000D2CF1F920F920FB60F9211242F933F9328
:1006B0004F935F936F937F938F939F93AF93BF936A
:1006C000EF93FF9384EE91E00E943102FF91EF914E
:1006D000BF91AF919F918F917F916F915F914F915A
:1006E0003F912F910F900FBE0F901F9018951F9262
:1006F0000F920FB60F9211242F938F939F93EF9326
:10070000FF93E091F401F091F5018081E091FA010D
:10071000F091FB0182FD1BC090818091FD018F5FF4
:100720008F732091FE01821741F0E091FD01F0E00E
:10073000EC51FE4F958F8093FD01FF91EF919F91BA
:100740008F912F910F900FBE0F901F901895808161
:10075000F4CFE4EEF1E01382128288EE93E0A0E0A1
:10076000B0E084839583A683B78380E491E091838E
:10077000808385EC90E09587848784EC90E0978770
:10078000868780EC90E0918B808B81EC90E0938B5E
:10079000828B82EC90E0958B848B86EC90E0978B3B
:1007A000868B118E128E138E148E0895CF93DF9345
:1007B000CDB7DEB768970FB6F894DEBF0FBECDBFDA
:1007C000789484B5826084BD84B5816084BD85B52C
:1007D000826085BD85B5816085BD80916E00816038
:1007E00080936E00109281008091810082608093DE
:1007F00081008091810081608093810080918000E0
:100800008160809380008091B10084608093B1000A
:100810008091B00081608093B00080917A00846004
:1008200080937A0080917A00826080937A00809130
:100830007A00816080937A0080917A00806880934A
:100840007A001092C10089E00E9487008AE00E942D
:1008500087008BE00E94870010928C0210928B021E
:1008600010928A02109289021092880210928702D6
:1008700010928602109285021092840210928302D6
:100880001092820210928102E091F401F091F50140
:1008900082E08083E091F001F091F1011082E0911B
:1008A000F201F091F3018FEC80831092FC01E09152
:1008B000F801F091F90186E08083E091F601F09172
:1008C000F701808180618083E091F601F091F7016A
:1008D000808188608083E091F601F091F70180814A
:1008E00080688083E091F601F091F70180818F7D2F
:1008F00080831092D6011092D5011092D8011092E7
:10090000D7011092DA011092D9014E0123E1820E33
:10091000911CCE0101963C015E019DE0A90EB11C27
:1009200081E591E00E94C80280E691E00E94C80241
:100930001C8A1B8A1E8A1D8A188E1F8A70E060E03E
:10094000C4010E94DF022B893C89811128C0211536
:10095000310519F0C9010E94EE061C8A1B8A188E07
:100960001F8A1E8A1D8A0E94C3010F89188D97FD58
:100970001EC089831A820F5F1F4FB801C4010E94F5
:10098000DF02882381F32B893C898F89988DB301FD
:10099000820F931F0E944908188F0F8BE4CF188E87
:1009A0001F8A60E571E0C9010E944908DCCFCB884D
:1009B000DC88C114D10429F076010115110509F074
:1009C000ECC04F89588D6B897C8984EE91E00E9440
:1009D00073010E94C0028F89988D069709F016C195
:1009E0000E944E016B017C0158EE252E53E0352EFE
:1009F000412C512C0E944E016C197D098E099F09D2
:100A0000683E734081059105A8F3F1E02F1A310883
:100A10004108510828EEC20E23E0D21EE11CF11C51
:100A2000211431044104510429F7EB88FC88CF8854
:100A3000D88C10E000E00C151D05B9F0F701E00FAF
:100A4000F11FE114F10421F41092D401E4EDF1E07E
:100A50008081082E000C990B0E943408892B09F024
:100A6000D2C087E791E00E94C80287E891E00E9427
:100A7000C802F50126E011922A95E9F70F89188D31
:100A80000115110579F00630110510F006E010E0AF
:100A90006B897C89A801C5010E945008F501E00F0F
:100AA000F11F1082F3012CE011922A95E9F7D5018C
:100AB000C301ED91E15330E020E0E63338F4F0E09B
:100AC000EA5FFE4F2081022E000C330BFC012193C4
:100AD0003193CF018A169B0661F785EB91E00E9466
:100AE000C80289819A8124E0880F991F2A95E1F72D
:100AF0002B813C81820F931F9093D6018093D50167
:100B00008D819E8134E0880F991F3A95E1F72F81FE
:100B10003885820F931F9093D8018093D7018985E0
:100B20009A8544E0880F991F4A95E1F72B853C850B
:100B3000820F931F9093DA018093D90184EC91E0A6
:100B40000E94C8028B899C89009711F00E94EE06D2
:100B50000091D9011091DA01E090D701F090D8010D
:100B60006091D5017091D60189E00E94F200B70131
:100B70008AE00E94F200B8018BE00E94F20080E05F
:100B800090E0892B09F4CCCE0E941D02882309F441
:100B9000C7CE0E940000C4CE72012701EFEF4E1AAB
:100BA0005E0AF7018081082E000C990B0E9409064D
:100BB000892B91F7015011090C0D1D1DF801808141
:100BC000082E000C990B0E940906892B31F00E1596
:100BD0001F0518F001501109F1CFA8014F5F5F4FB9
:100BE0004E195F09588F4F8BCE14DF0420F4B701E4
:100BF000C6010E944008EB89FC898F89988DE80F17
:100C0000F91F1082DECE0F5F1F4F15CF85E991E0EF
:100C10002ECF91110C941206803219F08950855014
:100C2000C8F708959927882708952F923F924F92E9
:100C30005F926F927F928F929F92AF92BF92CF926C
:100C4000DF92EF92FF920F931F93CF93DF93CDB775
:100C5000DEB7CA1BDB0B0FB6F894DEBF0FBECDBFED
:100C600009942A88398848885F846E847D848C84BE
:100C70009B84AA84B984C884DF80EE80FD800C81C7
:100C80001B81AA81B981CE0FD11D0FB6F894DEBFAA
:100C90000FBECDBFED010895EE0FFF1F0590F4913B
:100CA000E02D09940F931F93CF93DF93823091052A
:100CB00010F482E090E0E0918F02F091900230E039
:100CC00020E0B0E0A0E0309799F42115310509F457
:100CD0004AC0281B390B24303105D8F58A819B8105
:100CE0006115710589F1FB0193838283FE0111C0B7
:100CF000408151810281138148175907E0F048175C
:100D0000590799F4109761F012960C931297139665
:100D10001C933296CF01DF91CF911F910F910895CF
:100D200000938F0210939002F4CF2115310551F0FA
:100D30004217530738F0A901DB019A01BD01DF0119
:100D4000F801C1CFEF01F9CF9093900280938F0209
:100D5000CDCFFE01E20FF31F819391932250310911
:100D600039832883D7CF20918D0230918E02232B97
:100D700041F4209102013091030130938E022093BF
:100D80008D0220910001309101012115310541F4BE
:100D90002DB73EB74091040150910501241B350B3E
:100DA000E0918D02F0918E02E217F307A0F42E1B62
:100DB0003F0B2817390778F0AC014E5F5F4F2417BF
:100DC000350748F04E0F5F1F50938E0240938D02FF
:100DD000819391939FCFF0E0E0E09CCFCF93DF939E
:100DE0000097E9F0FC01329713821282A0918F02E2
:100DF000B0919002ED0130E020E01097A1F4208145
:100E00003181820F931F20918D0230918E0228171D
:100E1000390709F061C0F0938E02E0938D02DF91F3
:100E2000CF910895EA01CE17DF07E8F54A815B818B
:100E30009E0141155105B1F7E901FB83EA83499110
:100E40005991C40FD51FEC17FD0761F48081918182
:100E50000296840F951FE90199838883828193818B
:100E60009B838A83F0E0E0E012968D919C9113972A
:100E70000097B9F52D913C911197CD010296820F03
:100E8000931F20918D0230918E022817390739F671
:100E9000309751F51092900210928F02B0938E020B
:100EA000A0938D02BCCFD383C28340815181840F34
:100EB000951FC817D90761F44E5F5F4F88819981EC
:100EC000480F591F518340838A819B81938382837A
:100ED0002115310509F0B0CFF0939002E0938F0215
:100EE0009ECFFD01DC01C0CF13821282D7CFB0E0CC
:100EF000A0E0EDE7F7E00C9417068C01009751F4A1
:100F0000CB010E9452068C01C801CDB7DEB7E0E1EB
:100F10000C943306FC01E60FF71F9C0122503109A7
:100F2000E217F30708F49DC0D901CD91DC91119728
:100F3000C617D70798F0C530D10530F3CE01049716
:100F40008617970708F3C61BD70B2297C193D19337
:100F50006D937C93CF010E94EE06D6CF5B01AC1A55
:100F6000BD0A4C018C0E9D1EA0918F02B091900283
:100F7000512C412CF12CE12C109731F580918D02F0
:100F800090918E028815990509F05CC046165706A7
:100F900008F058C08091000190910101009741F440
:100FA0008DB79EB74091040150910501841B950BAC
:100FB000E817F90708F055C0F0938E02E0938D0210
:100FC000F90171836083A0CF8D919C911197129646
:100FD0006C90129713967C901397A815B90559F544
:100FE0006C0142E0C40ED11CCA14DB0420F1AC0138
:100FF0004A195B09DA011296159780F062827382B2
:1010000051834083D9016D937C93E114F10471F015
:10101000D7011396FC93EE93129776CF22968C0FFE
:101020009D1FF90191838083F301EFCFF09390022C
:10103000E0938F0269CF4816590608F42C017D0110
:10104000D3019ACFCB010E9452067C01009749F050
:10105000AE01B8010E944008C8010E94EE06870157
:1010600053CF10E000E050CF91110C941206805342
:101070008A5028F0865C806281568650B0F70895C9
:10108000FB01DC0102C001900D9241505040D8F7A5
:101090000895FB01DC0101900D920020E1F7089515
:1010A000FB01DC014150504048F001900D920020BE
:1010B000C9F701C01D9241505040E0F70895F894DF
:0210C000FFCF60
:1010C20000009102800001020304050607080900DE
:1010D2000000000000000A0B0C0D0E0F00000000C3
:1010E20000000000000000000000000000000000FE
:1010F2000000000000000A0B0C0D0E0F00000000A3
:1011020053027301A001A0021102AF0103020D0AF2
:10111200004D414445204954204845524520300065
:10112200496E70757420612076616C69642068650F
:1011320078636F64652100496E76616C696420484A
:101142006578636F64650056616C696420486578F0
:10115200636F646500486578204C656E677468202B
:10116200496E76616C69642C204C656E67746820E8
:10117200213D2036004D41444520495420484552E6
:10118200452031004D4144452049542048455245AF
:041192002032000007
:00000001FF
